S00F00004F6E5F544553542E73726563B9
S11300000C94C1000C94E0000C94E0000C94E0000B
S11300100C94E0000C94E0000C94E0000C94E000DC
S11300200C94E0000C94E0000C94E0000C94E000CC
S11300300C94E0000C94E0000C94E0000C94E000BC
S11300400C94E0000C94E0000C94E0000C94E000AC
S11300500C94E0000C94E0000C94E0000C94E0009C
S11300600C94E0000C94E0000C94E0000C94E0008C
S11300700C94E0000C94E0000C94E0000C94E0007C
S11300800C94E0000C94E0000C94E0000C94E0006C
S11300900C94E0000C94E0000C94E0000C94E0005C
S11300A00C94E0000C94E0000C94E0000C94E0004C
S11300B00C94E0000C94E0000C94E0000C94E0003C
S11300C00C94E0000C94E0000C94E0000C94E0002C
S11300D00C94E0000C94E0000C94E0000C94E0001C
S11300E00C94E0000C94E0000C94E0000C94E0000C
S11300F00C94E0000C94E0000C94E0000C94E000FC
S113010007634236B79BD8A71A39685618AEBAABFC
S1130110558C1D3CB7CC5763BD6DEDFD753EF61790
S11301207231BF000000803F08000000BE922449E5
S1130130123EABAAAA2ABECDCCCC4C3E0000008015
S1130140BEABAAAAAA3E00000000BF000000803F88
S11301500000000000084178D3BB4387D1133D1948
S11301600E3CC3BD4282AD2B3E68EC8276BED98F75
S1130170E1A93E4C80EFFFBE01C4FF7F3F000000B9
S1130180000011241FBECFEFCDBFDFE7DEBF10E4B8
S1130190A0E0B0E4E0E2FEE000E00BBF02C00790A4
S11301A00D92A030B107D9F720E4A0E0B0E401C07B
S11301B01D92A034B207E1F70E9461020C940E076D
S11301C00C9400006150710920E030E00EC0DC01A5
S11301D0A20FB31F4C91FC01E60FF71F50815C93F3
S11301E040832F5F3F4F61507109261737077CF317
S11301F00895CF92DF92EF92FF920F931F93CF93C4
S1130200DF938A016901C0E0D0E011C07801EC0EEF
S1130210FD1E2AE030E040E050E00E946C06605D84
S1130220F7016083622F732F842F952F2196611518
S113023071058105910551F706C0F801EC0FFD1F0A
S113024080E380832196CC15DD05BCF3BE01C80193
S11302500E94E200F801EC0FFD1F1082CE01DF9135
S1130260CF911F910F91FF90EF90DF90CF90089561
S11302708F929F92AF92BF92CF92DF92EF92FF92B2
S11302800F931F93CF93DF934B015C018A01E90124
S11302900E94B6036B01770FEE08FF08C701B60191
S11302A00E94EE039B01AC01C501B4010E94D70278
S11302B04B015C0120E030E0A801C701B6010E94B7
S11302C0F9007C01209749F1F801E80FF91F8EE24B
S11302D08083BE010D2E000C880B990B0E94EE0347
S11302E09B01AC0160E070E080E291E40E94E704CD
S11302F09B01AC01C501B4010E947A042FEFE21AFC
S1130300F20A0E94B603A8014E0D5F1D072E000CD1
S1130310880B990B9E010E94F900DF91CF911F91E8
S11303200F91FF90EF90DF90CF90BF90AF909F9090
S11303308F900895E0E4F4E020812D7F20832081D4
S113034021602083BC0180E090E00E94EC0320E067
S113035030E040E851E40E947A049B01AC0160E083
S113036074E284E79DE40E94440320E030E040E02E
S11303705FE30E94D8020E94BD03E0E2F8E06087D8
S113038071878681806C868308959091240895FFF7
S1130390FCCF8093220808950F931F93CF93DF938C
S11303A08C01C0E0D0E007C0F801EC0FFD1F808194
S11303B00E94C5012196F80101900020E9F73197C8
S11303C0E01BF10BCE17DF0778F38AE00E94C5012A
S11303D0DF91CF911F910F9108959A014CE050E461
S11303E00E9438018CE090E40E94CC01089585E8D5
S11303F08093A000E0E0F6E081E0828380830895AA
S1130400E0E0F4E08481877F84838091080482FDA6
S1130410FCCF90E040E050E0BA011CC0E0E0F4E022
S113042084818860848326E02A95F1F700C0440F14
S1130430551F661F771F8481877F848386E08A9592
S1130440F1F700C0808582FF04C04F5F5F4F6F4F9C
S11304507F4F9F5F983110F3E0E0F4E0848188607F
S11304608483CB01BA0180582481277F2483089593
S1130470E0E0F4E086818064868385818061858301
S11304808FE19EE40197F1F700C00000868180614E
S113049086838FE19EE40197F1F700C00000089580
S11304A0E0E0F4E080818065808380818B7F8083BD
S11304B0808188608083E0E4F4E087898160878BB1
S11304C00895789480E895E20E949A010E94F701C9
S11304D00E9450020E9438020E940002695472472E
S11304E0804891090E94EC0328EA35ED48E15CE379
S11304F00E947A046B017C01609300407093014078
S11305008093024090930340C0E0D0E019C0609112
S113051004407091054080910640909107400E94EC
S1130520EC03A70196010E94D8020E94BD036093C8
S113053004407093054080930640909307402196B1
S1130540C530D10524F36091044070910540809139
S11305500640909107402DEC3CEC4CEC5CEC0E9486
S11305608B0600E20E94B806822E932EA42EB52E8E
S1130570D501C401B695A79597958795B695A79586
S113058097958795BC01CD016E55714081099109FC
S11305906093044070930540809306409093074015
S11305A00E94EC0342E050E00E94ED0193CF5058CA
S11305B0BB27AA270E94EF020C9440040E94320435
S11305C038F00E94390420F039F49F3F19F426F4DE
S11305D00C942F040EF4E095E7FB0C942904E92F06
S11305E00E94510458F3BA176207730784079507EA
S11305F020F079F4A6F50C9473040EF4E0950B2E18
S1130600BA2FA02D0B01B90190010C01CA01A00160
S11306101124FF27591B99F0593F50F4503E68F1BB
S11306201A16F040A22F232F342F4427585FF3CFFC
S1130630469537952795A795F0405395C9F77EF4CD
S11306401F16BA0B620B730B840BBAF09150A1F016
S1130650FF0FBB1F661F771F881FC2F70EC0BA0F9C
S1130660621F731F841F48F4879577956795B79524
S1130670F7959E3F08F0B0CF9395880F08F099271F
S1130680EE0F9795879508950E9458030C944004A3
S11306900E94390458F00E94320440F029F45F3F6C
S11306A029F00C94290451110C9474040C942F0413
S11306B00E94510468F39923B1F3552391F3951BD8
S11306C0550BBB27AA2762177307840738F09F5F6F
S11306D05F4F220F331F441FAA1FA9F335D00E2EDC
S11306E03AF0E0E832D091505040E695001CCAF749
S11306F02BD0FE2F29D0660F771F881FBB1F26170C
S113070037074807AB07B0E809F0BB0B802DBF01E2
S1130710FF2793585F4F3AF09E3F510578F00C94B1
S113072029040C9474045F3FE4F3983ED4F3869553
S113073077956795B795F7959F5FC9F7880F911DD2
S11307409695879597F90895E1E0660F771F881FBE
S1130750BB1F621773078407BA0720F0621B730B71
S1130760840BBA0BEE1F88F7E09508950E94BD0331
S11307706894B1110C94740408950E94590488F08B
S11307809F5798F0B92F9927B751B0F0E1F0660F51
S1130790771F881F991F1AF0BA95C9F714C0B13092
S11307A091F00E947304B1E008950C947304672FD0
S11307B0782F8827B85F39F0B93FCCF386957795C1
S11307C06795B395D9F73EF49095809570956195AA
S11307D07F4F8F4F9F4F0895E89409C097FB3EF4D5
S11307E090958095709561957F4F8F4F9F4F99237A
S11307F0A9F0F92F96E9BB279395F69587957795F8
S11308006795B795F111F8CFFAF4BB0F11F460FFB7
S11308101BC06F5F7F4F8F4F9F4F16C0882311F00F
S113082096E911C0772321F09EE8872F762F05C023
S1130830662371F096E8862F70E060E02AF09A95BE
S1130840660F771F881FDAF7880F9695879597F9B3
S1130850089597F99F6780E870E060E008959FEF3E
S113086080EC089500240A94161617061806090643
S1130870089500240A941216130614060506089512
S1130880092E0394000C11F4882352F0BB0F40F49A
S1130890BF2B11F460FF04C06F5F7F4F8F4F9F4FDA
S11308A0089557FD9058440F551F59F05F3F71F05C
S11308B04795880F97FB991F61F09F3F79F08795C3
S11308C00895121613061406551FF2CF4695F1DF4C
S11308D008C0161617061806991FF1CF86957105DC
S11308E0610508940895E894BB2766277727CB0110
S11308F097F908950E948D040C9440040E943204D8
S113090038F00E94390420F0952311F00C94290446
S11309100C942F0411240C9474040E94510470F359
S1130920959FC1F3950F50E0551F629FF001729F90
S1130930BB27F00DB11D639FAA27F00DB11DAA1F9F
S1130940649F6627B00DA11D661F829F2227B00DEC
S1130950A11D621F739FB00DA11D621F839FA00D77
S1130960611D221F749F3327A00D611D231F849FC7
S1130970600D211D822F762F6A2F11249F5750401E
S11309809AF0F1F088234AF0EE0FFF1FBB1F661F99
S1130990771F881F91505040A9F79E3F510580F062
S11309A00C9429040C9474045F3FE4F3983ED4F34C
S11309B0869577956795B795F795E7959F5FC1F706
S11309C0FE2B880F911D9695879597F90895FA0146
S11309D0EE0FFF1F309621053105A1F16115710558
S11309E061F48038BFE39B0749F16894903881052E
S11309F061F08038BFEF9B0741F099234AF5FF3F30
S1130A00E1053105210519F1E8940894E795D90128
S1130A10AA2329F4AB2FBE2FF85FD0F310C0FF5FD9
S1130A2070F4A695E0F7F73950F019F0FF3A38F46E
S1130A309F779F930DD00F9007FC9058089546F030
S1130A400C942F0460E070E080E89FE308954FE782
S1130A509F775F934F933F932F930E94E2052F91CB
S1130A603F914F915F910E947A040C943F0529F4C1
S1130A7016F00C9429040C9473040C942F040E9413
S1130A805904A8F39638A0F707F80F92E8942BE3DB
S1130A903AEA48EB5FE70E9490040F920F920F929C
S1130AA04DB75EB70F920E942A06E0E0F1E00E9483
S1130AB071054F915F91EF91FF91E595EE1FFF1F37
S1130AC049F0FE57E0684427EE0F441FFA95E1F71A
S1130AD04195550B0E94A4050F9007FE0C949805B0
S1130AE00895DF93CF931F930F93FF92EF92DF92BA
S1130AF07B018C01689406C0DA2EEF010E948D04FC
S1130B00FE01E894A5912591359145915591A6F35F
S1130B10EF010E94EF02FE019701A801DA9469F740
S1130B20DF90EF90FF900F911F91CF91DF91089587
S1130B309B01AC0160E070E080E89FE30C94440307
S1130B400C9429040C945E060E945904D8F399234A
S1130B50C9F3940F511DA3F39150504094F059F0F0
S1130B60882332F0660F771F881F91505040C1F7D9
S1130B709E3F51052CF7880F911D9695879597F9FF
S1130B8008955F3FACF0983E9CF0BB27869577951F
S1130B906795B79508F4B1609395C1F7BB0F58F703
S1130BA011F460FFE8CF6F5F7F4F8F4F9F4FE3CF0C
S1130BB00C94740416F00C945E060C942F04689440
S1130BC00C9429040E945904A8F39923C1F3AEF3A9
S1130BD0DF93CF931F930F93FF92C92FDD278823B1
S1130BE02AF02197660F771F881FDAF720E030E09C
S1130BF040E85FEB9FE3883920F0803E38F021968F
S1130C008F770E94D802E8E2F1E004C00E94D80283
S1130C10E5E5F1E00E9471058B01BE01EC01FB2EBC
S1130C206F5771097595771F880B990B0E94EE0316
S1130C3028E132E741E35FE30E948D04AF2D980180
S1130C40AE01FF900F911F91CF91DF910E94EF02AF
S1130C500C944004FA01DC01AA0FBB1F9B01AC01F8
S1130C60BF5728F4222733274427507820C0B75190
S1130C7090F4AB2F0024469537952795011CA39536
S1130C80D2F3002071F0220F331F441FB395DAF31F
S1130C900ED00C94D70261307105A0E88A07B946DA
S1130CA030F49B01AC01662777278827907830962B
S1130CB021F0208331834283538308959F3F31F091
S1130CC0915020F4879577956795B795880F911D76
S1130CD09695879597F90895052E97FB1EF4009431
S1130CE00E94830657FD07D00E94D40607FC03D058
S1130CF04EF40C94830650954095309521953F4FC2
S1130D004F4F5F4F089590958095709561957F4FF3
S1130D108F4F9F4F0895E894DF93CF93FC01DB013D
S1130D200E94F6067F936F93E9019A01AC01BF9389
S1130D30AF933F932F93DF010E94F60626F46C1BBA
S1130D407D0B820B930B9E01EB01FC010E940507B6
S1130D50AF91BF912F913F910E940507BE01CF0132
S1130D60F9012F913F91CF91DF91089597FB10F8EE
S1130D70169400080F93083098F00850232F342F4E
S1130D80452F562F672F782F892F902DF4CF059458
S1130D9097958795779567955795479537952795AF
S1130DA00A95AAF70F910895A1E21A2EAA1BBB1B5C
S1130DB0FD010DC0AA1FBB1FEE1FFF1FA217B30723
S1130DC0E407F50720F0A21BB30BE40BF50B661F39
S1130DD0771F881F991F1A9469F7609570958095FD
S1130DE090959B01AC01BD01CF010895A29FB00174
S1130DF0B39FC001A39F700D811D1124911DB29F4B
S1130E00700D811D1124911D08950E94F606460F50
S1130E10571FC81FD91F08F431960895F894FFCFBF
S9030000FC
